{
    "abi": [
        {
            "type": "constructor",
            "inputs": [],
            "stateMutability": "nonpayable"
        },
        {
            "type": "function",
            "name": "donate",
            "inputs": [],
            "outputs": [],
            "stateMutability": "payable"
        },
        {
            "type": "function",
            "name": "donations",
            "inputs": [
                {
                    "name": "",
                    "type": "address",
                    "internalType": "address"
                }
            ],
            "outputs": [
                {
                    "name": "",
                    "type": "uint256",
                    "internalType": "uint256"
                }
            ],
            "stateMutability": "view"
        },
        {
            "type": "function",
            "name": "getTotalDonations",
            "inputs": [],
            "outputs": [
                {
                    "name": "",
                    "type": "uint256",
                    "internalType": "uint256"
                }
            ],
            "stateMutability": "view"
        },
        {
            "type": "function",
            "name": "owner",
            "inputs": [],
            "outputs": [
                {
                    "name": "",
                    "type": "address",
                    "internalType": "address"
                }
            ],
            "stateMutability": "view"
        },
        {
            "type": "function",
            "name": "totalDonations",
            "inputs": [],
            "outputs": [
                {
                    "name": "",
                    "type": "uint256",
                    "internalType": "uint256"
                }
            ],
            "stateMutability": "view"
        },
        {
            "type": "function",
            "name": "withdraw",
            "inputs": [],
            "outputs": [],
            "stateMutability": "nonpayable"
        },
        {
            "type": "event",
            "name": "Donated",
            "inputs": [
                {
                    "name": "donor",
                    "type": "address",
                    "indexed": true,
                    "internalType": "address"
                },
                {
                    "name": "amount",
                    "type": "uint256",
                    "indexed": false,
                    "internalType": "uint256"
                }
            ],
            "anonymous": false
        }
    ],
    "bytecode": {
        "object": "0x6080604052348015600e575f5ffd5b50335f5f6101000a81548173ffffffffffffffffffffffffffffffffffffffff021916908373ffffffffffffffffffffffffffffffffffffffff1602179055506105c38061005b5f395ff3fe608060405260043610610054575f3560e01c80633ccfd60b14610058578063777c658f1461006e5780638da5cb5b14610098578063cc6cb19a146100c2578063de2ed893146100fe578063ed88c68e14610128575b5f5ffd5b348015610063575f5ffd5b5061006c610132565b005b348015610079575f5ffd5b50610082610226565b60405161008f9190610383565b60405180910390f35b3480156100a3575f5ffd5b506100ac61022f565b6040516100b991906103db565b60405180910390f35b3480156100cd575f5ffd5b506100e860048036038101906100e39190610422565b610253565b6040516100f59190610383565b60405180910390f35b348015610109575f5ffd5b50610112610268565b60405161011f9190610383565b60405180910390f35b61013061026e565b005b5f5f9054906101000a900473ffffffffffffffffffffffffffffffffffffffff1673ffffffffffffffffffffffffffffffffffffffff163373ffffffffffffffffffffffffffffffffffffffff16146101c0576040517f08c379a00000000000000000000000000000000000000000000000000000000081526004016101b7906104a7565b60405180910390fd5b5f5f9054906101000a900473ffffffffffffffffffffffffffffffffffffffff1673ffffffffffffffffffffffffffffffffffffffff166108fc4790811502906040515f60405180830381858888f19350505050158015610223573d5f5f3e3d5ffd5b50565b5f600154905090565b5f5f9054906101000a900473ffffffffffffffffffffffffffffffffffffffff1681565b6002602052805f5260405f205f915090505481565b60015481565b5f34116102b0576040517f08c379a00000000000000000000000000000000000000000000000000000000081526004016102a79061050f565b60405180910390fd5b3460025f3373ffffffffffffffffffffffffffffffffffffffff1673ffffffffffffffffffffffffffffffffffffffff1681526020019081526020015f205f8282546102fc919061055a565b925050819055503460015f828254610314919061055a565b925050819055503373ffffffffffffffffffffffffffffffffffffffff167f2a01595cddf097c90216094025db714da3f4e5bd8877b56ba86a24ecead8e543346040516103619190610383565b60405180910390a2565b5f819050919050565b61037d8161036b565b82525050565b5f6020820190506103965f830184610374565b92915050565b5f73ffffffffffffffffffffffffffffffffffffffff82169050919050565b5f6103c58261039c565b9050919050565b6103d5816103bb565b82525050565b5f6020820190506103ee5f8301846103cc565b92915050565b5f5ffd5b610401816103bb565b811461040b575f5ffd5b50565b5f8135905061041c816103f8565b92915050565b5f60208284031215610437576104366103f4565b5b5f6104448482850161040e565b91505092915050565b5f82825260208201905092915050565b7f4f6e6c79206f776e6572000000000000000000000000000000000000000000005f82015250565b5f610491600a8361044d565b915061049c8261045d565b602082019050919050565b5f6020820190508181035f8301526104be81610485565b9050919050565b7f4d7573742073656e642043454c4f20746f20646f6e61746500000000000000005f82015250565b5f6104f960188361044d565b9150610504826104c5565b602082019050919050565b5f6020820190508181035f830152610526816104ed565b9050919050565b7f4e487b71000000000000000000000000000000000000000000000000000000005f52601160045260245ffd5b5f6105648261036b565b915061056f8361036b565b92508282019050808211156105875761058661052d565b5b9291505056fea2646970667358221220ca2ca7ca0cb695104b7dc6c7bec88040c7533ac395b0c6ae1d7fc328b48bcf6364736f6c634300081e0033",
        "linkReferences": {}
    },
    "methodIdentifiers": {
        "donate()": "ed88c68e",
        "donations(address)": "cc6cb19a",
        "getTotalDonations()": "777c658f",
        "owner()": "8da5cb5b",
        "totalDonations()": "de2ed893",
        "withdraw()": "3ccfd60b"
    },
    "id": 16
}